{
  "_format": "hh-sol-artifact-1",
  "contractName": "Game",
  "sourceName": "contracts/Game.sol",
  "abi": [
    {
      "inputs": [
        {
          "internalType": "address payable",
          "name": "_player1",
          "type": "address"
        },
        {
          "internalType": "address payable",
          "name": "_player2",
          "type": "address"
        },
        {
          "internalType": "uint256",
          "name": "_betAmount",
          "type": "uint256"
        }
      ],
      "stateMutability": "nonpayable",
      "type": "constructor"
    },
    {
      "inputs": [],
      "name": "betAmount",
      "outputs": [
        {
          "internalType": "uint256",
          "name": "",
          "type": "uint256"
        }
      ],
      "stateMutability": "view",
      "type": "function"
    },
    {
      "inputs": [
        {
          "internalType": "bytes32",
          "name": "commitment",
          "type": "bytes32"
        }
      ],
      "name": "commitMove",
      "outputs": [],
      "stateMutability": "payable",
      "type": "function"
    },
    {
      "inputs": [],
      "name": "forfeit",
      "outputs": [],
      "stateMutability": "nonpayable",
      "type": "function"
    },
    {
      "inputs": [],
      "name": "gameState",
      "outputs": [
        {
          "internalType": "enum Game.GameState",
          "name": "",
          "type": "uint8"
        }
      ],
      "stateMutability": "view",
      "type": "function"
    },
    {
      "inputs": [
        {
          "internalType": "enum Game.Move",
          "name": "move",
          "type": "uint8"
        },
        {
          "internalType": "string",
          "name": "secret",
          "type": "string"
        }
      ],
      "name": "generateCommitment",
      "outputs": [
        {
          "internalType": "bytes32",
          "name": "",
          "type": "bytes32"
        }
      ],
      "stateMutability": "pure",
      "type": "function"
    },
    {
      "inputs": [
        {
          "internalType": "uint256",
          "name": "",
          "type": "uint256"
        }
      ],
      "name": "players",
      "outputs": [
        {
          "internalType": "address payable",
          "name": "addr",
          "type": "address"
        },
        {
          "internalType": "bytes32",
          "name": "commitment",
          "type": "bytes32"
        },
        {
          "internalType": "enum Game.Move",
          "name": "move",
          "type": "uint8"
        }
      ],
      "stateMutability": "view",
      "type": "function"
    },
    {
      "inputs": [],
      "name": "revealDeadline",
      "outputs": [
        {
          "internalType": "uint256",
          "name": "",
          "type": "uint256"
        }
      ],
      "stateMutability": "view",
      "type": "function"
    },
    {
      "inputs": [
        {
          "internalType": "enum Game.Move",
          "name": "move",
          "type": "uint8"
        },
        {
          "internalType": "string",
          "name": "secret",
          "type": "string"
        }
      ],
      "name": "revealMove",
      "outputs": [],
      "stateMutability": "nonpayable",
      "type": "function"
    },
    {
      "inputs": [],
      "name": "surrender",
      "outputs": [
        {
          "internalType": "address",
          "name": "",
          "type": "address"
        }
      ],
      "stateMutability": "view",
      "type": "function"
    },
    {
      "inputs": [],
      "name": "viewWinner",
      "outputs": [
        {
          "internalType": "address",
          "name": "",
          "type": "address"
        }
      ],
      "stateMutability": "view",
      "type": "function"
    }
  ],
  "bytecode": "0x608060405234801561001057600080fd5b50604051610ec2380380610ec283398101604081905261002f916100de565b60408051606080820183526001600160a01b039586168083526000602080850182905293850181905280546001600160a01b0319908116909217815560018190556002805460ff199081169091558551938401865296909716808352928201879052920185905260038054909216179055600492909255600580548216905560069190915560088054909116905561011a565b80516001600160a01b03811681146100d957600080fd5b919050565b6000806000606084860312156100f357600080fd5b6100fc846100c2565b925061010a602085016100c2565b9150604084015190509250925092565b610d99806101296000396000f3fe6080604052600436106100915760003560e01c8063b71c47a211610059578063b71c47a214610141578063d1f9c24d14610166578063d24257c01461018d578063f3d86e4a146101a3578063f71d96cb146101b857600080fd5b80630e5aa8fc14610096578063392e2403146100c95780638972fe61146100f6578063a9ea37b614610118578063b14b28a31461012b575b600080fd5b3480156100a257600080fd5b506100b66100b1366004610b8a565b6101e7565b6040519081526020015b60405180910390f35b3480156100d557600080fd5b506100de61021b565b6040516001600160a01b0390911681526020016100c0565b34801561010257600080fd5b50610116610111366004610b8a565b610428565b005b610116610126366004610c52565b610630565b34801561013757600080fd5b506100b660075481565b34801561014d57600080fd5b506008546100de9061010090046001600160a01b031681565b34801561017257600080fd5b506008546101809060ff1681565b6040516100c09190610c81565b34801561019957600080fd5b506100b660065481565b3480156101af57600080fd5b506101166107c7565b3480156101c457600080fd5b506101d86101d3366004610c52565b61095b565b6040516100c093929190610c9b565b600082826040516020016101fc929190610cd0565b6040516020818303038152906040528051906020012090505b92915050565b6000600260085460ff16600281111561023657610236610c6b565b146102885760405162461bcd60e51b815260206004820152601960248201527f47616d65206973206e6f742079657420636f6d706c657465640000000000000060448201526064015b60405180910390fd5b60025460009060ff1660038111156102a2576102a2610c6b565b141580156102c8575060055460009060ff1660038111156102c5576102c5610c6b565b14155b6103205760405162461bcd60e51b8152602060048201526024808201527f4e6f7420616c6c20706c61796572732072657665616c6564207468656972206d6044820152636f76657360e01b606482015260840161027f565b60025460055460ff918216911680600381111561033f5761033f610c6b565b82600381111561035157610351610c6b565b0361035f5760009250505090565b600182600381111561037357610373610c6b565b1480156103915750600381600381111561038f5761038f610c6b565b145b806103c9575060028260038111156103ab576103ab610c6b565b1480156103c9575060018160038111156103c7576103c7610c6b565b145b80610401575060038260038111156103e3576103e3610c6b565b148015610401575060028160038111156103ff576103ff610c6b565b145b1561041f576000805b60030201546001600160a01b03169392505050565b6000600161040a565b6000546001600160a01b031633148061044b57506003546001600160a01b031633145b6104675760405162461bcd60e51b815260040161027f90610d1c565b600160085460ff16600281111561048057610480610c6b565b146104c55760405162461bcd60e51b81526020600482015260156024820152744e6f7420616363657074696e672072657665616c7360581b604482015260640161027f565b600080546001600160a01b031633146104df5760036104e2565b60005b90506000600282015460ff1660038111156104ff576104ff610c6b565b146105445760405162461bcd60e51b8152602060048201526015602482015274135bdd9948185b1c9958591e481c995d99585b1959605a1b604482015260640161027f565b8060010154838360405160200161055c929190610cd0565b60405160208183030381529060405280519060200120146105b85760405162461bcd60e51b8152602060048201526016602482015275125b9d985b1a59081b5bdd99481bdc881cd958dc995d60521b604482015260640161027f565b60028101805484919060ff191660018360038111156105d9576105d9610c6b565b021790555060025460009060ff1660038111156105f8576105f8610c6b565b1415801561061e575060055460009060ff16600381111561061b5761061b610c6b565b14155b1561062b5761062b61098f565b505050565b6000546001600160a01b031633148061065357506003546001600160a01b031633145b61066f5760405162461bcd60e51b815260040161027f90610d1c565b600060085460ff16600281111561068857610688610c6b565b146106d55760405162461bcd60e51b815260206004820152601960248201527f4e6f7420616363657074696e6720636f6d6d69746d656e747300000000000000604482015260640161027f565b600654341461071d5760405162461bcd60e51b8152602060048201526014602482015273125b98dbdc9c9958dd0818995d08185b5bdd5b9d60621b604482015260640161027f565b600080546001600160a01b0316331461073757600361073a565b60005b6001810154909150156107885760405162461bcd60e51b8152602060048201526016602482015275135bdd9948185b1c9958591e4818dbdb5b5a5d1d195960521b604482015260640161027f565b600181810183905554158015906107a0575060045415155b156107c3576008805460ff191660011790556107bf4262015180610d42565b6007555b5050565b6000546001600160a01b03163314806107ea57506003546001600160a01b031633145b6108065760405162461bcd60e51b815260040161027f90610d1c565b600160085460ff16600281111561081f5761081f610c6b565b146108615760405162461bcd60e51b815260206004820152601260248201527143616e6e6f7420666f7266656974206e6f7760701b604482015260640161027f565b600080546001600160a01b0316331461087b57600361087e565b60005b90506000808060030201546001600160a01b0316331461089f5760006108a2565b60035b90506000600283015460ff1660038111156108bf576108bf610c6b565b146109035760405162461bcd60e51b8152602060048201526014602482015273165bdd48185b1c9958591e481c995d99585b195960621b604482015260640161027f565b80546040516001600160a01b03909116904780156108fc02916000818181858888f1935050505015801561093b573d6000803e3d6000fd5b50506008805461010033026001600160a81b031990911617600217905550565b6000816002811061096b57600080fd5b60030201805460018201546002909201546001600160a01b03909116925060ff1683565b60025460055460ff91821691168060038111156109ae576109ae610c6b565b8260038111156109c0576109c0610c6b565b03610a4357600080546006546040516001600160a01b03909216926108fc8215029290818181858888f19350505050158015610a00573d6000803e3d6000fd5b506003546006546040516001600160a01b03909216916108fc82150291906000818181858888f19350505050158015610a3d573d6000803e3d6000fd5b50610b63565b6001826003811115610a5757610a57610c6b565b148015610a7557506003816003811115610a7357610a73610c6b565b145b80610aad57506002826003811115610a8f57610a8f610c6b565b148015610aad57506001816003811115610aab57610aab610c6b565b145b80610ae557506003826003811115610ac757610ac7610c6b565b148015610ae557506002816003811115610ae357610ae3610c6b565b145b15610b285760008060030201546040516001600160a01b03909116904780156108fc02916000818181858888f19350505050158015610a3d573d6000803e3d6000fd5b6003546040516001600160a01b03909116904780156108fc02916000818181858888f19350505050158015610b61573d6000803e3d6000fd5b505b50506008805460ff19166002179055565b634e487b7160e01b600052604160045260246000fd5b60008060408385031215610b9d57600080fd5b823560048110610bac57600080fd5b9150602083013567ffffffffffffffff80821115610bc957600080fd5b818501915085601f830112610bdd57600080fd5b813581811115610bef57610bef610b74565b604051601f8201601f19908116603f01168101908382118183101715610c1757610c17610b74565b81604052828152886020848701011115610c3057600080fd5b8260208601602083013760006020848301015280955050505050509250929050565b600060208284031215610c6457600080fd5b5035919050565b634e487b7160e01b600052602160045260246000fd5b6020810160038310610c9557610c95610c6b565b91905290565b6001600160a01b0384168152602081018390526060810160048310610cc257610cc2610c6b565b826040830152949350505050565b600060048410610ce257610ce2610c6b565b8360f81b8252825160005b81811015610d0a5760208186018101516001868401015201610ced565b50600092016001019182525092915050565b6020808252600c908201526b2737ba103090383630bcb2b960a11b604082015260600190565b8082018082111561021557634e487b7160e01b600052601160045260246000fdfea2646970667358221220f52f9128ddf703c418e0b665a8a58c269e76cd85a93ca9389f0eb032127d2e1e64736f6c63430008180033",
  "linkReferences": {},
  "deployedLinkReferences": {}
}